{
  "contractName": "DisasterData",
  "abi": [
    {
      "inputs": [],
      "stateMutability": "nonpayable",
      "type": "constructor"
    },
    {
      "inputs": [],
      "name": "admin",
      "outputs": [
        {
          "internalType": "address",
          "name": "",
          "type": "address"
        }
      ],
      "stateMutability": "view",
      "type": "function"
    },
    {
      "inputs": [
        {
          "internalType": "string",
          "name": "",
          "type": "string"
        }
      ],
      "name": "aggregateSeverety",
      "outputs": [
        {
          "internalType": "uint256",
          "name": "",
          "type": "uint256"
        }
      ],
      "stateMutability": "view",
      "type": "function"
    },
    {
      "inputs": [
        {
          "internalType": "string",
          "name": "",
          "type": "string"
        }
      ],
      "name": "severity",
      "outputs": [
        {
          "internalType": "uint256",
          "name": "lastUpdatedDay",
          "type": "uint256"
        }
      ],
      "stateMutability": "view",
      "type": "function"
    },
    {
      "inputs": [],
      "name": "startDay",
      "outputs": [
        {
          "internalType": "uint256",
          "name": "",
          "type": "uint256"
        }
      ],
      "stateMutability": "view",
      "type": "function"
    },
    {
      "inputs": [
        {
          "internalType": "string",
          "name": "district",
          "type": "string"
        }
      ],
      "name": "getValues",
      "outputs": [
        {
          "internalType": "uint256[]",
          "name": "",
          "type": "uint256[]"
        }
      ],
      "stateMutability": "view",
      "type": "function"
    },
    {
      "inputs": [
        {
          "internalType": "string",
          "name": "district",
          "type": "string"
        },
        {
          "internalType": "uint256",
          "name": "newSeverity",
          "type": "uint256"
        }
      ],
      "name": "setSeverity",
      "outputs": [],
      "stateMutability": "nonpayable",
      "type": "function"
    },
    {
      "inputs": [
        {
          "internalType": "string",
          "name": "district",
          "type": "string"
        },
        {
          "internalType": "uint256",
          "name": "day",
          "type": "uint256"
        }
      ],
      "name": "getSeverityData",
      "outputs": [
        {
          "internalType": "uint256",
          "name": "",
          "type": "uint256"
        }
      ],
      "stateMutability": "view",
      "type": "function"
    },
    {
      "inputs": [],
      "name": "getDistricts",
      "outputs": [
        {
          "internalType": "string",
          "name": "",
          "type": "string"
        }
      ],
      "stateMutability": "pure",
      "type": "function"
    },
    {
      "inputs": [
        {
          "internalType": "string",
          "name": "district",
          "type": "string"
        }
      ],
      "name": "getAccumulatedSeverity",
      "outputs": [
        {
          "internalType": "uint256",
          "name": "",
          "type": "uint256"
        }
      ],
      "stateMutability": "view",
      "type": "function"
    }
  ],
  "bytecode": "0x608060405234801561001057600080fd5b50336000806101000a81548173ffffffffffffffffffffffffffffffffffffffff021916908373ffffffffffffffffffffffffffffffffffffffff16021790555061012c4261005f91906100a3565b6001819055506100d4565b6000819050919050565b7f4e487b7100000000000000000000000000000000000000000000000000000000600052601260045260246000fd5b60006100ae8261006a565b91506100b98361006a565b9250826100c9576100c8610074565b5b828204905092915050565b6113af806100e36000396000f3fe608060405234801561001057600080fd5b50600436106100935760003560e01c8063a9f5dec611610066578063a9f5dec614610120578063ac4eec7a14610150578063ad6781d414610180578063c99ba896146101b0578063f851a440146101e057610093565b80630539272a146100985780633a79af38146100b6578063830f15b4146100e6578063a92563ed14610102575b600080fd5b6100a06101fe565b6040516100ad9190610a49565b60405180910390f35b6100d060048036038101906100cb9190610bbe565b610204565b6040516100dd9190610a49565b60405180910390f35b61010060048036038101906100fb9190610c33565b610238565b005b61010a61055f565b6040516101179190610d0e565b60405180910390f35b61013a60048036038101906101359190610c33565b610582565b6040516101479190610a49565b60405180910390f35b61016a60048036038101906101659190610bbe565b61071e565b6040516101779190610a49565b60405180910390f35b61019a60048036038101906101959190610bbe565b61074c565b6040516101a79190610a49565b60405180910390f35b6101ca60048036038101906101c59190610bbe565b61090f565b6040516101d79190610dee565b60405180910390f35b6101e8610988565b6040516101f59190610e51565b60405180910390f35b60015481565b6002818051602081018201805184825260208301602085012081835280955050505050506000915090508060000154905081565b60008054906101000a900473ffffffffffffffffffffffffffffffffffffffff1673ffffffffffffffffffffffffffffffffffffffff163373ffffffffffffffffffffffffffffffffffffffff16146102c6576040517f08c379a00000000000000000000000000000000000000000000000000000000081526004016102bd90610eb8565b60405180910390fd5b606481111561030a576040517f08c379a000000000000000000000000000000000000000000000000000000000815260040161030190610f4a565b60405180910390fd5b600061012c4261031a9190610fc8565b905060008060028560405161032f9190611035565b908152602001604051809103902060000154146103bb576002846040516103569190611035565b908152602001604051809103902060010160016002866040516103799190611035565b908152602001604051809103902060010180549050610398919061104c565b815481106103a9576103a8611080565b5b90600052602060002001549050610429565b6103c36109ac565b600180546103d1919061104c565b816000018181525050806002866040516103eb9190611035565b908152602001604051809103902060008201518160000155602082015181600101908051906020019061041f9291906109c6565b5090505060009150505b6000600160028660405161043d9190611035565b90815260200160405180910390206000015461045991906110af565b90505b828110156104bf576002856040516104749190611035565b908152602001604051809103902060010182908060018154018082558091505060019003906000526020600020016000909190919091505580806104b7906110e3565b91505061045c565b506002846040516104d09190611035565b9081526020016040518091039020600101839080600181540180825580915050600190039060005260206000200160009091909190915055816002856040516105199190611035565b9081526020016040518091039020600001819055506105378461074c565b6003856040516105479190611035565b90815260200160405180910390208190555050505050565b6060604051806101800160405280610150815260200161122a6101509139905090565b6000806002846040516105959190611035565b908152602001604051809103902060000154036105e7576040517f08c379a00000000000000000000000000000000000000000000000000000000081526004016105de90611177565b60405180910390fd5b81600154111561062c576040517f08c379a000000000000000000000000000000000000000000000000000000000815260040161062390611209565b60405180910390fd5b8160028460405161063d9190611035565b90815260200160405180910390206000015411156106a7576002836040516106659190611035565b908152602001604051809103902060010160015483610684919061104c565b8154811061069557610694611080565b5b90600052602060002001549050610718565b6002836040516106b79190611035565b908152602001604051809103902060010160016002856040516106da9190611035565b9081526020016040518091039020600101805490506106f9919061104c565b8154811061070a57610709611080565b5b906000526020600020015490505b92915050565b6003818051602081018201805184825260208301602085012081835280955050505050506000915090505481565b60008060028360405161075f9190611035565b908152602001604051809103902060000154036107b1576040517f08c379a00000000000000000000000000000000000000000000000000000000081526004016107a890611177565b60405180910390fd5b60006002836040516107c39190611035565b908152602001604051809103902060010180549050036107e6576000905061090a565b600080600a6002856040516107fb9190611035565b9081526020016040518091039020600101805490501061081c57600a610842565b60028460405161082c9190611035565b9081526020016040518091039020600101805490505b90506000816002866040516108579190611035565b908152602001604051809103902060010180549050610876919061104c565b90505b6002856040516108899190611035565b908152602001604051809103902060010180549050811015610903576002856040516108b59190611035565b908152602001604051809103902060010181815481106108d8576108d7611080565b5b9060005260206000200154836108ee91906110af565b925080806108fb906110e3565b915050610879565b5081925050505b919050565b60606002826040516109219190611035565b908152602001604051809103902060010180548060200260200160405190810160405280929190818152602001828054801561097c57602002820191906000526020600020905b815481526020019060010190808311610968575b50505050509050919050565b60008054906101000a900473ffffffffffffffffffffffffffffffffffffffff1681565b604051806040016040528060008152602001606081525090565b828054828255906000526020600020908101928215610a02579160200282015b82811115610a015782518255916020019190600101906109e6565b5b509050610a0f9190610a13565b5090565b5b80821115610a2c576000816000905550600101610a14565b5090565b6000819050919050565b610a4381610a30565b82525050565b6000602082019050610a5e6000830184610a3a565b92915050565b6000604051905090565b600080fd5b600080fd5b600080fd5b600080fd5b6000601f19601f8301169050919050565b7f4e487b7100000000000000000000000000000000000000000000000000000000600052604160045260246000fd5b610acb82610a82565b810181811067ffffffffffffffff82111715610aea57610ae9610a93565b5b80604052505050565b6000610afd610a64565b9050610b098282610ac2565b919050565b600067ffffffffffffffff821115610b2957610b28610a93565b5b610b3282610a82565b9050602081019050919050565b82818337600083830152505050565b6000610b61610b5c84610b0e565b610af3565b905082815260208101848484011115610b7d57610b7c610a7d565b5b610b88848285610b3f565b509392505050565b600082601f830112610ba557610ba4610a78565b5b8135610bb5848260208601610b4e565b91505092915050565b600060208284031215610bd457610bd3610a6e565b5b600082013567ffffffffffffffff811115610bf257610bf1610a73565b5b610bfe84828501610b90565b91505092915050565b610c1081610a30565b8114610c1b57600080fd5b50565b600081359050610c2d81610c07565b92915050565b60008060408385031215610c4a57610c49610a6e565b5b600083013567ffffffffffffffff811115610c6857610c67610a73565b5b610c7485828601610b90565b9250506020610c8585828601610c1e565b9150509250929050565b600081519050919050565b600082825260208201905092915050565b60005b83811015610cc9578082015181840152602081019050610cae565b60008484015250505050565b6000610ce082610c8f565b610cea8185610c9a565b9350610cfa818560208601610cab565b610d0381610a82565b840191505092915050565b60006020820190508181036000830152610d288184610cd5565b905092915050565b600081519050919050565b600082825260208201905092915050565b6000819050602082019050919050565b610d6581610a30565b82525050565b6000610d778383610d5c565b60208301905092915050565b6000602082019050919050565b6000610d9b82610d30565b610da58185610d3b565b9350610db083610d4c565b8060005b83811015610de1578151610dc88882610d6b565b9750610dd383610d83565b925050600181019050610db4565b5085935050505092915050565b60006020820190508181036000830152610e088184610d90565b905092915050565b600073ffffffffffffffffffffffffffffffffffffffff82169050919050565b6000610e3b82610e10565b9050919050565b610e4b81610e30565b82525050565b6000602082019050610e666000830184610e42565b92915050565b7f4f6e6c792061646d696e2063616e207365742064617461000000000000000000600082015250565b6000610ea2601783610c9a565b9150610ead82610e6c565b602082019050919050565b60006020820190508181036000830152610ed181610e95565b9050919050565b7f53657665726974792065786365656473206d61782076616c7565206f6620313060008201527f3000000000000000000000000000000000000000000000000000000000000000602082015250565b6000610f34602183610c9a565b9150610f3f82610ed8565b604082019050919050565b60006020820190508181036000830152610f6381610f27565b9050919050565b7f4e487b7100000000000000000000000000000000000000000000000000000000600052601260045260246000fd5b7f4e487b7100000000000000000000000000000000000000000000000000000000600052601160045260246000fd5b6000610fd382610a30565b9150610fde83610a30565b925082610fee57610fed610f6a565b5b828204905092915050565b600081905092915050565b600061100f82610c8f565b6110198185610ff9565b9350611029818560208601610cab565b80840191505092915050565b60006110418284611004565b915081905092915050565b600061105782610a30565b915061106283610a30565b925082820390508181111561107a57611079610f99565b5b92915050565b7f4e487b7100000000000000000000000000000000000000000000000000000000600052603260045260246000fd5b60006110ba82610a30565b91506110c583610a30565b92508282019050808211156110dd576110dc610f99565b5b92915050565b60006110ee82610a30565b91507fffffffffffffffffffffffffffffffffffffffffffffffffffffffffffffffff82036111205761111f610f99565b5b600182019050919050565b7f44617461206e6f742070726573656e7420666f72206c6f636174696f6e000000600082015250565b6000611161601d83610c9a565b915061116c8261112b565b602082019050919050565b6000602082019050818103600083015261119081611154565b9050919050565b7f4461792073686f756c642062652067726561746572207468616e20737461727460008201527f4461790000000000000000000000000000000000000000000000000000000000602082015250565b60006111f3602383610c9a565b91506111fe82611197565b604082019050919050565b60006020820190508181036000830152611222816111e6565b905091905056fe41686d65646e616761722c20416b6f6c612c20416d7261766174692c20417572616e67616261642c20426565642c204268616e646172612c2042756c6468616e612c204368616e6472617075722c204468756c652c20476164636869726f6c692c20476f6e6469612c2048696e676f6c692c204a616c67616f6e2c204a616c6e612c204b6f6c68617075722c204c617475722c204d756d62616920436974792c204d756d62616920537562757262616e2c204e61677075722c204e616e6465642c204e616e6475726261722c204e617368696b2c204f736d616e616261642c2050616c676861722c205061726268616e692c2050756e652c205261696761642c205261746e61676972692c2053616e676c692c205361746172612c2053696e646875647572672c20536f6c617075722c205468616e652c205761726468612c2057617368696d2c2059617661746d616ca2646970667358221220ccd8181cb1c897182db0eec0284be29c8ad87f3b9c99ef56cedf5eca5ac2323364736f6c63430008100033",
  "immutableReferences": {},
  "source": "/**\r\n *Submitted for verification at polygonscan.com on 2022-08-26\r\n*/\r\n\r\npragma solidity ^0.8.7;\r\n\r\ncontract DisasterData {\r\n\r\n    address public admin;\r\n    uint public startDay;\r\n\r\n    struct SeverityData {\r\n        uint lastUpdatedDay;\r\n        uint[] values;        // 0-100 indicating intensity\r\n    }\r\n\r\n    mapping(string => SeverityData) public severity;\r\n\r\n    mapping(string => uint) public aggregateSeverety;\r\n\r\n    function getValues(string memory district) public view returns(uint[] memory)\r\n    {\r\n        return severity[district].values;\r\n    }\r\n\r\n    constructor() {\r\n        admin = msg.sender;\r\n        startDay = block.timestamp / 5 minutes;\r\n    }\r\n\r\n    function min(uint256 a, uint256 b) private pure returns (uint256) {\r\n        return a <= b ? a : b;\r\n    }\r\n\r\n    \r\n    function setSeverity(string memory district, uint newSeverity) public {\r\n        require(msg.sender == admin, \"Only admin can set data\");\r\n        require(newSeverity<=100, \"Severity exceeds max value of 100\");\r\n        uint currentDay = block.timestamp / 5 minutes;\r\n        \r\n        uint currentValue;\r\n        if(severity[district].lastUpdatedDay != 0) {\r\n            currentValue = severity[district].values[severity[district].values.length-1];\r\n        }\r\n        else {\r\n            SeverityData memory data;\r\n            data.lastUpdatedDay = startDay-1;\r\n            severity[district] = data;\r\n            currentValue = 0;\r\n        }\r\n\r\n        for(uint i=severity[district].lastUpdatedDay+1; i<currentDay; i++)\r\n        {\r\n            severity[district].values.push(currentValue);\r\n        }\r\n        severity[district].values.push(newSeverity);\r\n        severity[district].lastUpdatedDay = currentDay;\r\n\r\n        aggregateSeverety[district] = getAccumulatedSeverity(district);\r\n    }\r\n\r\n\r\n    function getSeverityData(string memory district, uint day) public view returns (uint){\r\n        require(severity[district].lastUpdatedDay != 0, \"Data not present for location\");\r\n        require(startDay <= day, \"Day should be greater than startDay\");\r\n        if(severity[district].lastUpdatedDay > day) return severity[district].values[day-startDay];\r\n        else return severity[district].values[severity[district].values.length-1];\r\n    }\r\n\r\n    function getDistricts() public pure returns (string memory) {\r\n        return \"Ahmednagar, Akola, Amravati, Aurangabad, Beed, Bhandara, Buldhana, Chandrapur, Dhule, Gadchiroli, Gondia, Hingoli, Jalgaon, Jalna, Kolhapur, Latur, Mumbai City, Mumbai Suburban, Nagpur, Nanded, Nandurbar, Nashik, Osmanabad, Palghar, Parbhani, Pune, Raigad, Ratnagiri, Sangli, Satara, Sindhudurg, Solapur, Thane, Wardha, Washim, Yavatmal\";\r\n    }\r\n\r\n    function getAccumulatedSeverity(string memory district) public view returns (uint) {\r\n        require(severity[district].lastUpdatedDay != 0, \"Data not present for location\");\r\n\r\n        if(severity[district].values.length == 0) return 0;\r\n        uint sumSeverity = 0;\r\n        uint totalDays = severity[district].values.length < 10 ? severity[district].values.length : 10;\r\n        for(uint i=severity[district].values.length-totalDays; i<severity[district].values.length; i++) {\r\n            sumSeverity += severity[district].values[i];\r\n        }\r\n        return sumSeverity;\r\n    }\r\n/*\r\n    function getTotalAccumulatedSeverity() public view returns (uint256)\r\n    {\r\n        string[36] memory districts = [\"Ahmednagar\", \"Akola\", \"Amravati\", \"Aurangabad\", \"Beed\", \"Bhandara\", \"Buldhana\", \"Chandrapur\", \"Dhule\", \"Gadchiroli\", \"Gondia\", \"Hingoli\", \"Jalgaon\", \"Jalna\", \"Kolhapur\", \"Latur\", \"Mumbai City\", \"Mumbai Suburban\", \"Nagpur\", \"Nanded\", \"Nandurbar\", \"Nashik\", \"Osmanabad\", \"Palghar\", \"Parbhani\", \"Pune\", \"Raigad\", \"Ratnagiri\", \"Sangli\", \"Satara\", \"Sindhudurg\", \"Solapur\", \"Thane\", \"Wardha\", \"Washim\", \"Yavatmal\"];\r\n\r\n        uint256 aggregate = 0;\r\n        for(uint256 i = 0; i<36; i++)\r\n        {\r\n            aggregate += aggregateSeverety[districts[i]];\r\n        }\r\n\r\n        return aggregate;\r\n    }\r\n    */\r\n}\r\n",
  "sourcePath": "C:\\programs\\TE\\hacker-house-blockchain\\contracts\\DisasterData.sol",
  "compiler": {
    "name": "solc",
    "version": "0.8.16+commit.07a7930e.Emscripten.clang"
  },
  "schemaVersion": "3.4.7",
  "updatedAt": "2022-08-29T17:32:13.412Z",
  "devdoc": {
    "kind": "dev",
    "methods": {},
    "version": 1
  },
  "userdoc": {
    "kind": "user",
    "methods": {},
    "version": 1
  }
}