{
  "contractName": "DisasterData",
  "abi": [
    {
      "inputs": [],
      "stateMutability": "nonpayable",
      "type": "constructor"
    },
    {
      "inputs": [],
      "name": "admin",
      "outputs": [
        {
          "internalType": "address",
          "name": "",
          "type": "address"
        }
      ],
      "stateMutability": "view",
      "type": "function"
    },
    {
      "inputs": [
        {
          "internalType": "string",
          "name": "",
          "type": "string"
        }
      ],
      "name": "aggregateSeverety",
      "outputs": [
        {
          "internalType": "uint256",
          "name": "",
          "type": "uint256"
        }
      ],
      "stateMutability": "view",
      "type": "function"
    },
    {
      "inputs": [
        {
          "internalType": "string",
          "name": "",
          "type": "string"
        }
      ],
      "name": "severity",
      "outputs": [
        {
          "internalType": "uint256",
          "name": "lastUpdatedDay",
          "type": "uint256"
        }
      ],
      "stateMutability": "view",
      "type": "function"
    },
    {
      "inputs": [],
      "name": "startDay",
      "outputs": [
        {
          "internalType": "uint256",
          "name": "",
          "type": "uint256"
        }
      ],
      "stateMutability": "view",
      "type": "function"
    },
    {
      "inputs": [
        {
          "internalType": "string",
          "name": "district",
          "type": "string"
        }
      ],
      "name": "getValues",
      "outputs": [
        {
          "internalType": "uint256[]",
          "name": "",
          "type": "uint256[]"
        }
      ],
      "stateMutability": "view",
      "type": "function"
    },
    {
      "inputs": [
        {
          "internalType": "uint256",
          "name": "a",
          "type": "uint256"
        },
        {
          "internalType": "uint256",
          "name": "b",
          "type": "uint256"
        }
      ],
      "name": "min",
      "outputs": [
        {
          "internalType": "uint256",
          "name": "",
          "type": "uint256"
        }
      ],
      "stateMutability": "pure",
      "type": "function"
    },
    {
      "inputs": [
        {
          "internalType": "string",
          "name": "district",
          "type": "string"
        },
        {
          "internalType": "uint256",
          "name": "newSeverity",
          "type": "uint256"
        }
      ],
      "name": "setSeverity",
      "outputs": [],
      "stateMutability": "nonpayable",
      "type": "function"
    },
    {
      "inputs": [
        {
          "internalType": "string",
          "name": "district",
          "type": "string"
        },
        {
          "internalType": "uint256",
          "name": "day",
          "type": "uint256"
        }
      ],
      "name": "getSeverityData",
      "outputs": [
        {
          "internalType": "uint256",
          "name": "",
          "type": "uint256"
        }
      ],
      "stateMutability": "view",
      "type": "function"
    },
    {
      "inputs": [],
      "name": "getDistricts",
      "outputs": [
        {
          "internalType": "string",
          "name": "",
          "type": "string"
        }
      ],
      "stateMutability": "pure",
      "type": "function"
    },
    {
      "inputs": [
        {
          "internalType": "string",
          "name": "district",
          "type": "string"
        }
      ],
      "name": "getAccumulatedSeverity",
      "outputs": [
        {
          "internalType": "uint256",
          "name": "",
          "type": "uint256"
        }
      ],
      "stateMutability": "view",
      "type": "function"
    },
    {
      "inputs": [],
      "name": "getTotalAccumulatedSeverity",
      "outputs": [
        {
          "internalType": "uint256",
          "name": "",
          "type": "uint256"
        }
      ],
      "stateMutability": "view",
      "type": "function"
    }
  ],
  "bytecode": "0x60806040523480156200001157600080fd5b50336000806101000a81548173ffffffffffffffffffffffffffffffffffffffff021916908373ffffffffffffffffffffffffffffffffffffffff16021790555061012c42620000629190620000a7565b600181905550620000df565b6000819050919050565b7f4e487b7100000000000000000000000000000000000000000000000000000000600052601260045260246000fd5b6000620000b4826200006e565b9150620000c1836200006e565b925082620000d457620000d362000078565b5b828204905092915050565b611d0980620000ef6000396000f3fe608060405234801561001057600080fd5b50600436106100a95760003560e01c8063a92563ed11610071578063a92563ed14610166578063a9f5dec614610184578063ac4eec7a146101b4578063ad6781d4146101e4578063c99ba89614610214578063f851a44014610244576100a9565b80630539272a146100ae5780633a79af38146100cc5780637ae2b5c7146100fc578063830f15b41461012c578063a46be3aa14610148575b600080fd5b6100b6610262565b6040516100c39190611363565b60405180910390f35b6100e660048036038101906100e191906114d8565b610268565b6040516100f39190611363565b60405180910390f35b6101166004803603810190610111919061154d565b61029c565b6040516101239190611363565b60405180910390f35b6101466004803603810190610141919061158d565b6102b6565b005b6101506105b2565b60405161015d9190611363565b60405180910390f35b61016e610e79565b60405161017b9190611668565b60405180910390f35b61019e6004803603810190610199919061158d565b610e9c565b6040516101ab9190611363565b60405180910390f35b6101ce60048036038101906101c991906114d8565b611038565b6040516101db9190611363565b60405180910390f35b6101fe60048036038101906101f991906114d8565b611066565b60405161020b9190611363565b60405180910390f35b61022e600480360381019061022991906114d8565b611229565b60405161023b9190611748565b60405180910390f35b61024c6112a2565b60405161025991906117ab565b60405180910390f35b60015481565b6002818051602081018201805184825260208301602085012081835280955050505050506000915090508060000154905081565b6000818311156102ac57816102ae565b825b905092915050565b60008054906101000a900473ffffffffffffffffffffffffffffffffffffffff1673ffffffffffffffffffffffffffffffffffffffff163373ffffffffffffffffffffffffffffffffffffffff1614610344576040517f08c379a000000000000000000000000000000000000000000000000000000000815260040161033b90611812565b60405180910390fd5b6064811115610388576040517f08c379a000000000000000000000000000000000000000000000000000000000815260040161037f906118a4565b60405180910390fd5b600061012c426103989190611922565b90506000806002856040516103ad919061198f565b90815260200160405180910390206000015414610439576002846040516103d4919061198f565b908152602001604051809103902060010160016002866040516103f7919061198f565b90815260200160405180910390206001018054905061041691906119a6565b81548110610427576104266119da565b5b906000526020600020015490506104a7565b6104416112c6565b6001805461044f91906119a6565b81600001818152505080600286604051610469919061198f565b908152602001604051809103902060008201518160000155602082015181600101908051906020019061049d9291906112e0565b5090505060009150505b600060016002866040516104bb919061198f565b9081526020016040518091039020600001546104d79190611a09565b90505b8281101561053d576002856040516104f2919061198f565b9081526020016040518091039020600101829080600181540180825580915050600190039060005260206000200160009091909190915055808061053590611a3d565b9150506104da565b5060028460405161054e919061198f565b908152602001604051809103902060010183908060018154018082558091505060019003906000526020600020016000909190919091505581600285604051610597919061198f565b90815260200160405180910390206000018190555050505050565b6000806040518061048001604052806040518060400160405280600a81526020017f41686d65646e616761720000000000000000000000000000000000000000000081525081526020016040518060400160405280600581526020017f416b6f6c6100000000000000000000000000000000000000000000000000000081525081526020016040518060400160405280600881526020017f416d72617661746900000000000000000000000000000000000000000000000081525081526020016040518060400160405280600a81526020017f417572616e67616261640000000000000000000000000000000000000000000081525081526020016040518060400160405280600481526020017f426565640000000000000000000000000000000000000000000000000000000081525081526020016040518060400160405280600881526020017f4268616e6461726100000000000000000000000000000000000000000000000081525081526020016040518060400160405280600881526020017f42756c6468616e6100000000000000000000000000000000000000000000000081525081526020016040518060400160405280600a81526020017f4368616e6472617075720000000000000000000000000000000000000000000081525081526020016040518060400160405280600581526020017f4468756c6500000000000000000000000000000000000000000000000000000081525081526020016040518060400160405280600a81526020017f476164636869726f6c690000000000000000000000000000000000000000000081525081526020016040518060400160405280600681526020017f476f6e646961000000000000000000000000000000000000000000000000000081525081526020016040518060400160405280600781526020017f48696e676f6c690000000000000000000000000000000000000000000000000081525081526020016040518060400160405280600781526020017f4a616c67616f6e0000000000000000000000000000000000000000000000000081525081526020016040518060400160405280600581526020017f4a616c6e6100000000000000000000000000000000000000000000000000000081525081526020016040518060400160405280600881526020017f4b6f6c686170757200000000000000000000000000000000000000000000000081525081526020016040518060400160405280600581526020017f4c6174757200000000000000000000000000000000000000000000000000000081525081526020016040518060400160405280600b81526020017f4d756d626169204369747900000000000000000000000000000000000000000081525081526020016040518060400160405280600f81526020017f4d756d62616920537562757262616e000000000000000000000000000000000081525081526020016040518060400160405280600681526020017f4e6167707572000000000000000000000000000000000000000000000000000081525081526020016040518060400160405280600681526020017f4e616e646564000000000000000000000000000000000000000000000000000081525081526020016040518060400160405280600981526020017f4e616e647572626172000000000000000000000000000000000000000000000081525081526020016040518060400160405280600681526020017f4e617368696b000000000000000000000000000000000000000000000000000081525081526020016040518060400160405280600981526020017f4f736d616e61626164000000000000000000000000000000000000000000000081525081526020016040518060400160405280600781526020017f50616c676861720000000000000000000000000000000000000000000000000081525081526020016040518060400160405280600881526020017f5061726268616e6900000000000000000000000000000000000000000000000081525081526020016040518060400160405280600481526020017f50756e650000000000000000000000000000000000000000000000000000000081525081526020016040518060400160405280600681526020017f526169676164000000000000000000000000000000000000000000000000000081525081526020016040518060400160405280600981526020017f5261746e6167697269000000000000000000000000000000000000000000000081525081526020016040518060400160405280600681526020017f53616e676c69000000000000000000000000000000000000000000000000000081525081526020016040518060400160405280600681526020017f536174617261000000000000000000000000000000000000000000000000000081525081526020016040518060400160405280600a81526020017f53696e646875647572670000000000000000000000000000000000000000000081525081526020016040518060400160405280600781526020017f536f6c617075720000000000000000000000000000000000000000000000000081525081526020016040518060400160405280600581526020017f5468616e6500000000000000000000000000000000000000000000000000000081525081526020016040518060400160405280600681526020017f576172646861000000000000000000000000000000000000000000000000000081525081526020016040518060400160405280600681526020017f57617368696d000000000000000000000000000000000000000000000000000081525081526020016040518060400160405280600881526020017f59617661746d616c00000000000000000000000000000000000000000000000081525081525090506000805b6024811015610e70576003838260248110610e2f57610e2e6119da565b5b6020020151604051610e41919061198f565b90815260200160405180910390205482610e5b9190611a09565b91508080610e6890611a3d565b915050610e11565b50809250505090565b60606040518061018001604052806101508152602001611b846101509139905090565b600080600284604051610eaf919061198f565b90815260200160405180910390206000015403610f01576040517f08c379a0000000000000000000000000000000000000000000000000000000008152600401610ef890611ad1565b60405180910390fd5b816001541115610f46576040517f08c379a0000000000000000000000000000000000000000000000000000000008152600401610f3d90611b63565b60405180910390fd5b81600284604051610f57919061198f565b9081526020016040518091039020600001541115610fc157600283604051610f7f919061198f565b908152602001604051809103902060010160015483610f9e91906119a6565b81548110610faf57610fae6119da565b5b90600052602060002001549050611032565b600283604051610fd1919061198f565b90815260200160405180910390206001016001600285604051610ff4919061198f565b90815260200160405180910390206001018054905061101391906119a6565b81548110611024576110236119da565b5b906000526020600020015490505b92915050565b6003818051602081018201805184825260208301602085012081835280955050505050506000915090505481565b600080600283604051611079919061198f565b908152602001604051809103902060000154036110cb576040517f08c379a00000000000000000000000000000000000000000000000000000000081526004016110c290611ad1565b60405180910390fd5b60006002836040516110dd919061198f565b908152602001604051809103902060010180549050036111005760009050611224565b600080600a600285604051611115919061198f565b9081526020016040518091039020600101805490501061113657600a61115c565b600284604051611146919061198f565b9081526020016040518091039020600101805490505b9050600081600286604051611171919061198f565b90815260200160405180910390206001018054905061119091906119a6565b90505b6002856040516111a3919061198f565b90815260200160405180910390206001018054905081101561121d576002856040516111cf919061198f565b908152602001604051809103902060010181815481106111f2576111f16119da565b5b9060005260206000200154836112089190611a09565b9250808061121590611a3d565b915050611193565b5081925050505b919050565b606060028260405161123b919061198f565b908152602001604051809103902060010180548060200260200160405190810160405280929190818152602001828054801561129657602002820191906000526020600020905b815481526020019060010190808311611282575b50505050509050919050565b60008054906101000a900473ffffffffffffffffffffffffffffffffffffffff1681565b604051806040016040528060008152602001606081525090565b82805482825590600052602060002090810192821561131c579160200282015b8281111561131b578251825591602001919060010190611300565b5b509050611329919061132d565b5090565b5b8082111561134657600081600090555060010161132e565b5090565b6000819050919050565b61135d8161134a565b82525050565b60006020820190506113786000830184611354565b92915050565b6000604051905090565b600080fd5b600080fd5b600080fd5b600080fd5b6000601f19601f8301169050919050565b7f4e487b7100000000000000000000000000000000000000000000000000000000600052604160045260246000fd5b6113e58261139c565b810181811067ffffffffffffffff82111715611404576114036113ad565b5b80604052505050565b600061141761137e565b905061142382826113dc565b919050565b600067ffffffffffffffff821115611443576114426113ad565b5b61144c8261139c565b9050602081019050919050565b82818337600083830152505050565b600061147b61147684611428565b61140d565b90508281526020810184848401111561149757611496611397565b5b6114a2848285611459565b509392505050565b600082601f8301126114bf576114be611392565b5b81356114cf848260208601611468565b91505092915050565b6000602082840312156114ee576114ed611388565b5b600082013567ffffffffffffffff81111561150c5761150b61138d565b5b611518848285016114aa565b91505092915050565b61152a8161134a565b811461153557600080fd5b50565b60008135905061154781611521565b92915050565b6000806040838503121561156457611563611388565b5b600061157285828601611538565b925050602061158385828601611538565b9150509250929050565b600080604083850312156115a4576115a3611388565b5b600083013567ffffffffffffffff8111156115c2576115c161138d565b5b6115ce858286016114aa565b92505060206115df85828601611538565b9150509250929050565b600081519050919050565b600082825260208201905092915050565b60005b83811015611623578082015181840152602081019050611608565b60008484015250505050565b600061163a826115e9565b61164481856115f4565b9350611654818560208601611605565b61165d8161139c565b840191505092915050565b60006020820190508181036000830152611682818461162f565b905092915050565b600081519050919050565b600082825260208201905092915050565b6000819050602082019050919050565b6116bf8161134a565b82525050565b60006116d183836116b6565b60208301905092915050565b6000602082019050919050565b60006116f58261168a565b6116ff8185611695565b935061170a836116a6565b8060005b8381101561173b57815161172288826116c5565b975061172d836116dd565b92505060018101905061170e565b5085935050505092915050565b6000602082019050818103600083015261176281846116ea565b905092915050565b600073ffffffffffffffffffffffffffffffffffffffff82169050919050565b60006117958261176a565b9050919050565b6117a58161178a565b82525050565b60006020820190506117c0600083018461179c565b92915050565b7f4f6e6c792061646d696e2063616e207365742064617461000000000000000000600082015250565b60006117fc6017836115f4565b9150611807826117c6565b602082019050919050565b6000602082019050818103600083015261182b816117ef565b9050919050565b7f53657665726974792065786365656473206d61782076616c7565206f6620313060008201527f3000000000000000000000000000000000000000000000000000000000000000602082015250565b600061188e6021836115f4565b915061189982611832565b604082019050919050565b600060208201905081810360008301526118bd81611881565b9050919050565b7f4e487b7100000000000000000000000000000000000000000000000000000000600052601260045260246000fd5b7f4e487b7100000000000000000000000000000000000000000000000000000000600052601160045260246000fd5b600061192d8261134a565b91506119388361134a565b925082611948576119476118c4565b5b828204905092915050565b600081905092915050565b6000611969826115e9565b6119738185611953565b9350611983818560208601611605565b80840191505092915050565b600061199b828461195e565b915081905092915050565b60006119b18261134a565b91506119bc8361134a565b92508282039050818111156119d4576119d36118f3565b5b92915050565b7f4e487b7100000000000000000000000000000000000000000000000000000000600052603260045260246000fd5b6000611a148261134a565b9150611a1f8361134a565b9250828201905080821115611a3757611a366118f3565b5b92915050565b6000611a488261134a565b91507fffffffffffffffffffffffffffffffffffffffffffffffffffffffffffffffff8203611a7a57611a796118f3565b5b600182019050919050565b7f44617461206e6f742070726573656e7420666f72206c6f636174696f6e000000600082015250565b6000611abb601d836115f4565b9150611ac682611a85565b602082019050919050565b60006020820190508181036000830152611aea81611aae565b9050919050565b7f4461792073686f756c642062652067726561746572207468616e20737461727460008201527f4461790000000000000000000000000000000000000000000000000000000000602082015250565b6000611b4d6023836115f4565b9150611b5882611af1565b604082019050919050565b60006020820190508181036000830152611b7c81611b40565b905091905056fe41686d65646e616761722c20416b6f6c612c20416d7261766174692c20417572616e67616261642c20426565642c204268616e646172612c2042756c6468616e612c204368616e6472617075722c204468756c652c20476164636869726f6c692c20476f6e6469612c2048696e676f6c692c204a616c67616f6e2c204a616c6e612c204b6f6c68617075722c204c617475722c204d756d62616920436974792c204d756d62616920537562757262616e2c204e61677075722c204e616e6465642c204e616e6475726261722c204e617368696b2c204f736d616e616261642c2050616c676861722c205061726268616e692c2050756e652c205261696761642c205261746e61676972692c2053616e676c692c205361746172612c2053696e646875647572672c20536f6c617075722c205468616e652c205761726468612c2057617368696d2c2059617661746d616ca26469706673582212208e871b5871363a62fa1c20632eddf5a6eaa96f93ecf8f38da8f99e44901d792664736f6c63430008100033",
  "immutableReferences": {},
  "source": "/**\r\n *Submitted for verification at polygonscan.com on 2022-08-26\r\n*/\r\n\r\npragma solidity ^0.8.16;\r\n\r\ncontract DisasterData {\r\n\r\n    address public admin;\r\n    uint public startDay;\r\n\r\n    struct SeverityData {\r\n        uint lastUpdatedDay;\r\n        uint[] values;        // 0-100 indicating intensity\r\n    }\r\n\r\n    mapping(string => SeverityData) public severity;\r\n\r\n    mapping(string => uint) public aggregateSeverety;\r\n\r\n    function getValues(string memory district) public view returns(uint[] memory)\r\n    {\r\n        return severity[district].values;\r\n    }\r\n\r\n    constructor() {\r\n        admin = msg.sender;\r\n        startDay = block.timestamp / 5 minutes;\r\n    }\r\n\r\n    function min(uint256 a, uint256 b) external pure returns (uint256) {\r\n        return a <= b ? a : b;\r\n    }\r\n\r\n    function setSeverity(string memory district, uint newSeverity) public {\r\n        require(msg.sender == admin, \"Only admin can set data\");\r\n        require(newSeverity<=100, \"Severity exceeds max value of 100\");\r\n        uint currentDay = block.timestamp / 5 minutes;\r\n        \r\n        uint currentValue;\r\n        if(severity[district].lastUpdatedDay != 0) {\r\n            currentValue = severity[district].values[severity[district].values.length-1];\r\n        }\r\n        else {\r\n            SeverityData memory data;\r\n            data.lastUpdatedDay = startDay-1;\r\n            severity[district] = data;\r\n            currentValue = 0;\r\n        }\r\n\r\n        //uint totalDays = severity[district].values.length < 10 ? severity[district].values.length : 10;\r\n        //uint lastUpdatedDay = severity[district].lastUpdatedDay;\r\n        //uint start = min(lastUpdatedDay, currentDay - totalDays);\r\n\r\n        for(uint i=severity[district].lastUpdatedDay+1; i<currentDay; i++)\r\n        {\r\n\r\n            severity[district].values.push(currentValue);\r\n        }\r\n        severity[district].values.push(newSeverity);\r\n        severity[district].lastUpdatedDay = currentDay;\r\n\r\n        //aggregateSeverety[district] = getAccumulatedSeverity(district);\r\n    }\r\n\r\n    function getSeverityData(string memory district, uint day) public view returns (uint){\r\n        require(severity[district].lastUpdatedDay != 0, \"Data not present for location\");\r\n        require(startDay <= day, \"Day should be greater than startDay\");\r\n        if(severity[district].lastUpdatedDay > day) return severity[district].values[day-startDay];\r\n        else return severity[district].values[severity[district].values.length-1];\r\n    }\r\n\r\n    function getDistricts() public pure returns (string memory) {\r\n        return \"Ahmednagar, Akola, Amravati, Aurangabad, Beed, Bhandara, Buldhana, Chandrapur, Dhule, Gadchiroli, Gondia, Hingoli, Jalgaon, Jalna, Kolhapur, Latur, Mumbai City, Mumbai Suburban, Nagpur, Nanded, Nandurbar, Nashik, Osmanabad, Palghar, Parbhani, Pune, Raigad, Ratnagiri, Sangli, Satara, Sindhudurg, Solapur, Thane, Wardha, Washim, Yavatmal\";\r\n    }\r\n\r\n    function getAccumulatedSeverity(string memory district) public view returns (uint) {\r\n        require(severity[district].lastUpdatedDay != 0, \"Data not present for location\");\r\n\r\n        if(severity[district].values.length == 0) return 0;\r\n        uint sumSeverity = 0;\r\n        uint totalDays = severity[district].values.length < 10 ? severity[district].values.length : 10;\r\n        for(uint i=severity[district].values.length-totalDays; i<severity[district].values.length; i++) {\r\n            sumSeverity += severity[district].values[i];\r\n        }\r\n        return sumSeverity;\r\n    }\r\n\r\n    // event sumSe(string district, uint severity);\r\n    function getTotalAccumulatedSeverity() public view returns (uint256)\r\n    {\r\n        string[36] memory districts = [\"Ahmednagar\", \"Akola\", \"Amravati\", \"Aurangabad\", \"Beed\", \"Bhandara\", \"Buldhana\", \"Chandrapur\", \"Dhule\", \"Gadchiroli\", \"Gondia\", \"Hingoli\", \"Jalgaon\", \"Jalna\", \"Kolhapur\", \"Latur\", \"Mumbai City\", \"Mumbai Suburban\", \"Nagpur\", \"Nanded\", \"Nandurbar\", \"Nashik\", \"Osmanabad\", \"Palghar\", \"Parbhani\", \"Pune\", \"Raigad\", \"Ratnagiri\", \"Sangli\", \"Satara\", \"Sindhudurg\", \"Solapur\", \"Thane\", \"Wardha\", \"Washim\", \"Yavatmal\"];\r\n\r\n        uint256 aggregate = 0;\r\n        for(uint256 i = 0; i<36; i++)\r\n        {\r\n            aggregate += aggregateSeverety[districts[i]];\r\n            // emit sumSe(districts[i], aggregate);\r\n        }\r\n\r\n        return aggregate;\r\n    }\r\n}",
  "sourcePath": "C:\\programs\\TE\\hacker-house-blockchain\\contracts\\DisasterData.sol",
  "compiler": {
    "name": "solc",
    "version": "0.8.16+commit.07a7930e.Emscripten.clang"
  },
  "schemaVersion": "3.4.7",
  "updatedAt": "2022-08-27T08:57:48.047Z",
  "devdoc": {
    "kind": "dev",
    "methods": {},
    "version": 1
  },
  "userdoc": {
    "kind": "user",
    "methods": {},
    "version": 1
  }
}