{
  "contractName": "Insurance",
  "abi": [
    {
      "inputs": [],
      "stateMutability": "nonpayable",
      "type": "constructor"
    },
    {
      "anonymous": false,
      "inputs": [
        {
          "indexed": false,
          "internalType": "uint256",
          "name": "insurancePayment",
          "type": "uint256"
        }
      ],
      "name": "payout",
      "type": "event"
    },
    {
      "inputs": [
        {
          "internalType": "string",
          "name": "district_",
          "type": "string"
        }
      ],
      "name": "registerFarmer",
      "outputs": [],
      "stateMutability": "nonpayable",
      "type": "function"
    },
    {
      "inputs": [],
      "name": "payPremium",
      "outputs": [],
      "stateMutability": "payable",
      "type": "function"
    },
    {
      "inputs": [],
      "name": "claimInsurance",
      "outputs": [],
      "stateMutability": "payable",
      "type": "function"
    }
  ],
  "bytecode": "0x60806040523480156200001157600080fd5b506000600160006101000a81548160ff0219169083151502179055506005426200003c9190620000de565b600381905550600060028190555073c8b947138c320a6663ffbbb02571b5dcad804a70600b60006101000a81548173ffffffffffffffffffffffffffffffffffffffff021916908373ffffffffffffffffffffffffffffffffffffffff16021790555062000116565b6000819050919050565b7f4e487b7100000000000000000000000000000000000000000000000000000000600052601260045260246000fd5b6000620000eb82620000a5565b9150620000f883620000a5565b9250826200010b576200010a620000af565b5b828204905092915050565b61182880620001266000396000f3fe6080604052600436106100345760003560e01c806329c08ba2146100395780637ba7295e14610043578063a75ac6081461006c575b600080fd5b610041610076565b005b34801561004f57600080fd5b5061006a60048036038101906100659190610eea565b6102e0565b005b6100746105c3565b005b60001515600160009054906101000a900460ff161515146100cc576040517f08c379a00000000000000000000000000000000000000000000000000000000081526004016100c390610f90565b60405180910390fd5b6000340361010f576040517f08c379a000000000000000000000000000000000000000000000000000000000815260040161010690610ffc565b60405180910390fd5b60011515600760003373ffffffffffffffffffffffffffffffffffffffff1673ffffffffffffffffffffffffffffffffffffffff16815260200190815260200160002060009054906101000a900460ff161515146101a2576040517f08c379a000000000000000000000000000000000000000000000000000000000815260040161019990611068565b60405180910390fd5b60006101ac610a5f565b90506000600660003373ffffffffffffffffffffffffffffffffffffffff1673ffffffffffffffffffffffffffffffffffffffff16815260200190815260200160002054905060006005828154811061020857610207611088565b5b906000526020600020906006020190506002548361022691906110f0565b92508060030134908060018154018082558091505060019003906000526020600020016000909190919091505580600401839080600181540180825580915050600190039060005260206000200160009091909190915055348160020160008282546102929190611124565b92505081905550346008600085815260200190815260200160002060008282546102bc9190611124565b92505081905550346000808282546102d49190611124565b92505081905550505050565b60001515600160009054906101000a900460ff16151514610336576040517f08c379a000000000000000000000000000000000000000000000000000000000815260040161032d90610f90565b60405180910390fd5b60001515600760003373ffffffffffffffffffffffffffffffffffffffff1673ffffffffffffffffffffffffffffffffffffffff16815260200190815260200160002060009054906101000a900460ff161515146103c9576040517f08c379a00000000000000000000000000000000000000000000000000000000081526004016103c0906111a4565b60405180910390fd5b6103d1610cd8565b33816000019073ffffffffffffffffffffffffffffffffffffffff16908173ffffffffffffffffffffffffffffffffffffffff168152505081816020018190525060008160a0019015159081151581525050600581908060018154018082558091505060019003906000526020600020906006020160009091909190915060008201518160000160006101000a81548173ffffffffffffffffffffffffffffffffffffffff021916908373ffffffffffffffffffffffffffffffffffffffff16021790555060208201518160010190816104ab91906113db565b506040820151816002015560608201518160030190805190602001906104d2929190610d26565b5060808201518160040190805190602001906104ef929190610d26565b5060a08201518160050160006101000a81548160ff0219169083151502179055505050600160058054905061052491906110f0565b600660003373ffffffffffffffffffffffffffffffffffffffff1673ffffffffffffffffffffffffffffffffffffffff168152602001908152602001600020819055506001600760003373ffffffffffffffffffffffffffffffffffffffff1673ffffffffffffffffffffffffffffffffffffffff16815260200190815260200160002060006101000a81548160ff0219169083151502179055505050565b60006105cd610a5f565b905060006005600660003373ffffffffffffffffffffffffffffffffffffffff1673ffffffffffffffffffffffffffffffffffffffff168152602001908152602001600020548154811061062457610623611088565b5b90600052602060002090600602016040518060c00160405290816000820160009054906101000a900473ffffffffffffffffffffffffffffffffffffffff1673ffffffffffffffffffffffffffffffffffffffff1673ffffffffffffffffffffffffffffffffffffffff1681526020016001820180546106a3906111fe565b80601f01602080910402602001604051908101604052809291908181526020018280546106cf906111fe565b801561071c5780601f106106f15761010080835404028352916020019161071c565b820191906000526020600020905b8154815290600101906020018083116106ff57829003601f168201915b50505050508152602001600282015481526020016003820180548060200260200160405190810160405280929190818152602001828054801561077e57602002820191906000526020600020905b81548152602001906001019080831161076a575b50505050508152602001600482018054806020026020016040519081016040528092919081815260200182805480156107d657602002820191906000526020600020905b8154815260200190600101908083116107c2575b505050505081526020016005820160009054906101000a900460ff1615151515815250509050600015158160a00151151514610847576040517f08c379a000000000000000000000000000000000000000000000000000000000815260040161083e906114f9565b60405180910390fd5b60011515600160009054906101000a900460ff161515146108a05760018060006101000a81548160ff0219169083151502179055508160048190555061088b610a80565b600981905550610899610b0a565b600a819055505b60006108ab82610c09565b90506000600b60009054906101000a900473ffffffffffffffffffffffffffffffffffffffff1673ffffffffffffffffffffffffffffffffffffffff1663ad6781d484602001516040518263ffffffff1660e01b815260040161090e919061157c565b602060405180830381865afa15801561092b573d6000803e3d6000fd5b505050506040513d601f19601f8201168201806040525081019061094f91906115ca565b9050600082600a5461096191906115f7565b905060008260095461097391906115f7565b90506000805482846109859190611124565b61098f91906115f7565b90506000600a5460095460026109a591906115f7565b6109af91906115f7565b9050600081836109bf9190611680565b90507fe1152343617d257cfe9712ba6d7d3c80308e0e1dcfca0f37ff88845d3de079d8816040516109f091906116c0565b60405180910390a160018860a0019015159081151581525050876000015173ffffffffffffffffffffffffffffffffffffffff166108fc829081150290604051600060405180830381858888f19350505050158015610a53573d6000803e3d6000fd5b50505050505050505050565b6000600354600542610a719190611680565b610a7b91906110f0565b905090565b600080600254600454610a9391906110f0565b90506000806001905060008390505b60008110610b0057816008600083815260200190815260200160002054610ac991906115f7565b83610ad49190611124565b92508180610ae1906116db565b9250506000810315610b00578080610af890611723565b915050610aa2565b5081935050505090565b6000806000905060005b600580549050811015610c0157600b60009054906101000a900473ffffffffffffffffffffffffffffffffffffffff1673ffffffffffffffffffffffffffffffffffffffff1663ad6781d460058381548110610b7357610b72611088565b5b90600052602060002090600602016001016040518263ffffffff1660e01b8152600401610ba091906117d0565b602060405180830381865afa158015610bbd573d6000803e3d6000fd5b505050506040513d601f19601f82011682018060405250810190610be191906115ca565b82610bec9190611124565b91508080610bf9906116db565b915050610b14565b508091505090565b6000806000905060006001905060006001856060015151610c2a91906110f0565b90505b60008110610ccd57600185608001518281518110610c4e57610c4d611088565b5b6020026020010151600454610c6391906110f0565b610c6d9190611124565b85606001518281518110610c8457610c83611088565b5b6020026020010151610c9691906115f7565b83610ca19190611124565b92508180610cae906116db565b9250506000810315610ccd578080610cc590611723565b915050610c2d565b508192505050919050565b6040518060c00160405280600073ffffffffffffffffffffffffffffffffffffffff168152602001606081526020016000815260200160608152602001606081526020016000151581525090565b828054828255906000526020600020908101928215610d62579160200282015b82811115610d61578251825591602001919060010190610d46565b5b509050610d6f9190610d73565b5090565b5b80821115610d8c576000816000905550600101610d74565b5090565b6000604051905090565b600080fd5b600080fd5b600080fd5b600080fd5b6000601f19601f8301169050919050565b7f4e487b7100000000000000000000000000000000000000000000000000000000600052604160045260246000fd5b610df782610dae565b810181811067ffffffffffffffff82111715610e1657610e15610dbf565b5b80604052505050565b6000610e29610d90565b9050610e358282610dee565b919050565b600067ffffffffffffffff821115610e5557610e54610dbf565b5b610e5e82610dae565b9050602081019050919050565b82818337600083830152505050565b6000610e8d610e8884610e3a565b610e1f565b905082815260208101848484011115610ea957610ea8610da9565b5b610eb4848285610e6b565b509392505050565b600082601f830112610ed157610ed0610da4565b5b8135610ee1848260208601610e7a565b91505092915050565b600060208284031215610f0057610eff610d9a565b5b600082013567ffffffffffffffff811115610f1e57610f1d610d9f565b5b610f2a84828501610ebc565b91505092915050565b600082825260208201905092915050565b7f436f6e747261637420686173206265656e206c6f636b65640000000000000000600082015250565b6000610f7a601883610f33565b9150610f8582610f44565b602082019050919050565b60006020820190508181036000830152610fa981610f6d565b9050919050565b7f5072656d69756d2063616e6e6f74206265207a65726f00000000000000000000600082015250565b6000610fe6601683610f33565b9150610ff182610fb0565b602082019050919050565b6000602082019050818103600083015261101581610fd9565b9050919050565b7f596f7520617265206e6f74207265676973746572656400000000000000000000600082015250565b6000611052601683610f33565b915061105d8261101c565b602082019050919050565b6000602082019050818103600083015261108181611045565b9050919050565b7f4e487b7100000000000000000000000000000000000000000000000000000000600052603260045260246000fd5b6000819050919050565b7f4e487b7100000000000000000000000000000000000000000000000000000000600052601160045260246000fd5b60006110fb826110b7565b9150611106836110b7565b925082820390508181111561111e5761111d6110c1565b5b92915050565b600061112f826110b7565b915061113a836110b7565b9250828201905080821115611152576111516110c1565b5b92915050565b7f596f752061726520616c72656164792072656769737465726564000000000000600082015250565b600061118e601a83610f33565b915061119982611158565b602082019050919050565b600060208201905081810360008301526111bd81611181565b9050919050565b600081519050919050565b7f4e487b7100000000000000000000000000000000000000000000000000000000600052602260045260246000fd5b6000600282049050600182168061121657607f821691505b602082108103611229576112286111cf565b5b50919050565b60008190508160005260206000209050919050565b60006020601f8301049050919050565b600082821b905092915050565b6000600883026112917fffffffffffffffffffffffffffffffffffffffffffffffffffffffffffffffff82611254565b61129b8683611254565b95508019841693508086168417925050509392505050565b6000819050919050565b60006112d86112d36112ce846110b7565b6112b3565b6110b7565b9050919050565b6000819050919050565b6112f2836112bd565b6113066112fe826112df565b848454611261565b825550505050565b600090565b61131b61130e565b6113268184846112e9565b505050565b5b8181101561134a5761133f600082611313565b60018101905061132c565b5050565b601f82111561138f576113608161122f565b61136984611244565b81016020851015611378578190505b61138c61138485611244565b83018261132b565b50505b505050565b600082821c905092915050565b60006113b260001984600802611394565b1980831691505092915050565b60006113cb83836113a1565b9150826002028217905092915050565b6113e4826111c4565b67ffffffffffffffff8111156113fd576113fc610dbf565b5b61140782546111fe565b61141282828561134e565b600060209050601f8311600181146114455760008415611433578287015190505b61143d85826113bf565b8655506114a5565b601f1984166114538661122f565b60005b8281101561147b57848901518255600182019150602085019450602081019050611456565b868310156114985784890151611494601f8916826113a1565b8355505b6001600288020188555050505b505050505050565b7f43616e277420636c61696d20616761696e2e0000000000000000000000000000600082015250565b60006114e3601283610f33565b91506114ee826114ad565b602082019050919050565b60006020820190508181036000830152611512816114d6565b9050919050565b60005b8381101561153757808201518184015260208101905061151c565b60008484015250505050565b600061154e826111c4565b6115588185610f33565b9350611568818560208601611519565b61157181610dae565b840191505092915050565b600060208201905081810360008301526115968184611543565b905092915050565b6115a7816110b7565b81146115b257600080fd5b50565b6000815190506115c48161159e565b92915050565b6000602082840312156115e0576115df610d9a565b5b60006115ee848285016115b5565b91505092915050565b6000611602826110b7565b915061160d836110b7565b9250817fffffffffffffffffffffffffffffffffffffffffffffffffffffffffffffffff0483118215151615611646576116456110c1565b5b828202905092915050565b7f4e487b7100000000000000000000000000000000000000000000000000000000600052601260045260246000fd5b600061168b826110b7565b9150611696836110b7565b9250826116a6576116a5611651565b5b828204905092915050565b6116ba816110b7565b82525050565b60006020820190506116d560008301846116b1565b92915050565b60006116e6826110b7565b91507fffffffffffffffffffffffffffffffffffffffffffffffffffffffffffffffff8203611718576117176110c1565b5b600182019050919050565b600061172e826110b7565b915060008203611741576117406110c1565b5b600182039050919050565b60008154611759816111fe565b6117638186610f33565b9450600182166000811461177e5760018114611794576117c7565b60ff1983168652811515602002860193506117c7565b61179d8561122f565b60005b838110156117bf578154818901526001820191506020810190506117a0565b808801955050505b50505092915050565b600060208201905081810360008301526117ea818461174c565b90509291505056fea26469706673582212201a94f961122e2b93c542ce8e25458634abc7f1ec7ff9bfbe99659613bf44d91a64736f6c63430008100033",
  "immutableReferences": {},
  "source": "// SPDX-License-Identifier: MIT\r\n/*\r\n    GROUP NAME - Illuminaties No Sleep Gang\r\n    MEMBERS -\r\n    1) Siddhesh Avinash Dhinge\r\n    2) Onkar Bandu Swami\r\n    3) Sumit Uttamrao Kawale\r\n    4) Jayesh Vinod Kowale\r\n*/\r\n/*\r\n    We have used different DataDisaster which is a bit modified by us.\r\n*/\r\npragma solidity ^0.8.7;\r\ninterface DisasterInterface  {\r\n    function setSeverity(string memory district, uint newSeverity) external;\r\n    function getSeverityData(string memory district, uint day) external view returns (uint);\r\n    function getDistricts() external pure returns (string memory);\r\n    function getAccumulatedSeverity(string memory district) external view returns (uint);\r\n    function getTotalAccumulatedSeverity() external view returns (uint256);\r\n}\r\ncontract Insurance\r\n{\r\n    struct farmer\r\n    {\r\n        address farmer_address;\r\n        string district;\r\n        uint256 total_paid_premium;\r\n        uint256[] paid_premium;\r\n        uint256[] paid_timestamp;\r\n        bool locked;\r\n    }\r\n    uint256 private totalBalance;\r\n    bool private contractLock;\r\n    uint256 private startDay;\r\n    uint256 private t_startDay;\r\n    uint256 private endDay;\r\n    farmer[] private list_farmer;\r\n    mapping(address => uint256) private list_farmer_index;\r\n    mapping(address => bool) private list_farmer_valid;\r\n    mapping(uint256 => uint256) private day_aggregate;\r\n    // Calculating sum( x(i) * y(i) ),\r\n    // tried to reduce time complexity form O(n * m) to O(n),\r\n    // where n => number of days from start to end & m => numbers of farmers.\r\n    uint256 private totalDayFactorAggregate;\r\n    uint256 private totalSeverityFactorAggregate;\r\n    DisasterInterface private DisasterInterfaceObject;\r\n    modifier unlocked\r\n    {\r\n        require(contractLock == false, \"Contract has been locked\");\r\n        _;\r\n    }\r\n    modifier onlyFarmer\r\n    {\r\n        require(list_farmer_valid[msg.sender] == true, \"You are not registered\");\r\n        _;\r\n    }\r\n    constructor()\r\n    {\r\n        contractLock = false;\r\n        t_startDay = (block.timestamp) / 5 seconds;\r\n        startDay = 0;\r\n        DisasterInterfaceObject = DisasterInterface(0xc8b947138c320A6663ffBbb02571B5dcAd804A70);\r\n    }\r\n/*\r\n    function getFarmer() public view returns(farmer memory)\r\n    {\r\n        uint256 farmer_index = list_farmer_index[msg.sender];\r\n        return list_farmer[farmer_index];\r\n    }\r\n*/\r\n/*\r\n    // !!! used for testing.\r\n    uint256 public c_day = 0;\r\n    function setDay(uint256 day) public\r\n    {\r\n        c_day = day;\r\n    }\r\n    function getDay() private view returns(uint256)\r\n    {\r\n        return c_day;\r\n    } \r\n*/\r\n// This will be in production\r\n    function getDay() private view returns(uint256)\r\n    {\r\n        return (block.timestamp) / 5 seconds - t_startDay;\r\n    }\r\n\r\n    function registerFarmer(string memory district_) public unlocked\r\n    {\r\n        require(list_farmer_valid[msg.sender] == false, \"You are already registered\");\r\n        farmer memory tmp;\r\n        tmp.farmer_address = msg.sender;\r\n        tmp.district = district_;\r\n        tmp.locked = false;\r\n        list_farmer.push(tmp);\r\n        list_farmer_index[msg.sender] = list_farmer.length -1;\r\n        list_farmer_valid[msg.sender] = true;\r\n    }\r\n    function payPremium() public payable unlocked\r\n    {\r\n        require(msg.value != 0, \"Premium cannot be zero\");\r\n        require(list_farmer_valid[msg.sender] == true, \"You are not registered\");\r\n        uint current_day = getDay();\r\n        uint256 farmer_index = list_farmer_index[msg.sender];\r\n        farmer storage t_farmer = list_farmer[farmer_index];\r\n        current_day = current_day - startDay;\r\n        t_farmer.paid_premium.push(msg.value);\r\n        t_farmer.paid_timestamp.push(current_day);\r\n        t_farmer.total_paid_premium += msg.value;\r\n        day_aggregate[current_day] += msg.value;\r\n        totalBalance += msg.value;\r\n    }\r\n    function calculateAggregateDayFactor() private view returns (uint256)\r\n    {\r\n        uint256 day_aggregator_length = endDay - startDay;\r\n        uint256 aggregate_day_factor = 0;\r\n        uint256 j = 1;\r\n        for(uint256 i = day_aggregator_length; i>= 0 ;i--)\r\n        {\r\n            aggregate_day_factor += day_aggregate[i] * j;\r\n            j++;\r\n            if(i == 0)\r\n                break;\r\n        }\r\n        return aggregate_day_factor;\r\n    }\r\n    function calculateDayFactor(farmer memory t_farmer) private view returns (uint256)\r\n    {\r\n        uint256 t_day_factor = 0;\r\n        uint256 j = 1;\r\n        for(uint256 i = t_farmer.paid_premium.length -1; i >= 0; i--)\r\n        {\r\n            t_day_factor += t_farmer.paid_premium[i] * (endDay - t_farmer.paid_timestamp[i] +1);\r\n            j++;\r\n            if(i == 0)\r\n                break;\r\n        }\r\n        return t_day_factor;\r\n    }\r\n/*\r\n    event cnumber\r\n    (\r\n        uint endDay,\r\n        uint totalDayFactorAggregate,\r\n        uint totalSeverityFactorAggregate,\r\n        uint day_factor,\r\n        uint severity_factor,\r\n        uint p1,\r\n        uint p2,\r\n        uint numerator,\r\n        uint denominator\r\n    );\r\n*/\r\n    function getTotalAccumulatedSeverity() private view returns (uint256)\r\n    {\r\n        uint256 aggregate = 0;\r\n        for (uint256 i=0;i< list_farmer.length;i++)\r\n        {\r\n            aggregate += DisasterInterfaceObject.getAccumulatedSeverity(list_farmer[i].district);\r\n        }\r\n        return aggregate;\r\n    }\r\n    function canClaim() private view returns (bool){\r\n        uint currDate = getDay();\r\n        uint256 diff = currDate - startDay;\r\n        diff = (((diff/60)/60)/24);\r\n        if(diff > 3 ){\r\n            return true;\r\n        }else{\r\n            return false;\r\n        }\r\n    }\r\n    event payout(uint insurancePayment);\r\n    function claimInsurance() public payable\r\n    {\r\n        //require(canClaim() == true, \"Can't claim now wait 3 years.\");\r\n        uint256 today = getDay();\r\n        farmer memory t_farmer = list_farmer[list_farmer_index[msg.sender]];\r\n        require(t_farmer.locked == false, \"Can't claim again.\");\r\n        if(contractLock != true)\r\n        {\r\n            contractLock = true;\r\n            endDay = today;\r\n            totalDayFactorAggregate = calculateAggregateDayFactor();\r\n            totalSeverityFactorAggregate = getTotalAccumulatedSeverity();\r\n        }\r\n        uint256 day_factor = calculateDayFactor(t_farmer);\r\n        uint256 severity_factor = DisasterInterfaceObject.getAccumulatedSeverity(t_farmer.district);\r\n        uint256 p1 = totalSeverityFactorAggregate * day_factor;\r\n        uint256 p2 = totalDayFactorAggregate * severity_factor;\r\n        uint256 numerator = (p1 + p2) * totalBalance;\r\n        uint256 denominator = (2 * totalDayFactorAggregate * totalSeverityFactorAggregate);\r\n        //emit cnumber(endDay, totalDayFactorAggregate, totalSeverityFactorAggregate, day_factor, severity_factor, p1, p2, numerator, denominator);\r\n        uint256 total_insurance_amount = numerator / denominator;\r\n        emit payout(total_insurance_amount);\r\n        t_farmer.locked = true;\r\n        payable(t_farmer.farmer_address).transfer(total_insurance_amount);\r\n    }\r\n}\r\n",
  "sourcePath": "C:\\programs\\TE\\hacker-house-blockchain\\contracts\\Insurance.sol",
  "compiler": {
    "name": "solc",
    "version": "0.8.16+commit.07a7930e.Emscripten.clang"
  },
  "schemaVersion": "3.4.7",
  "updatedAt": "2022-08-29T17:32:13.520Z",
  "devdoc": {
    "kind": "dev",
    "methods": {},
    "version": 1
  },
  "userdoc": {
    "kind": "user",
    "methods": {},
    "version": 1
  }
}