{
  "contractName": "Insurance",
  "abi": [
    {
      "inputs": [],
      "stateMutability": "nonpayable",
      "type": "constructor"
    },
    {
      "anonymous": false,
      "inputs": [
        {
          "indexed": false,
          "internalType": "uint256",
          "name": "endDay",
          "type": "uint256"
        },
        {
          "indexed": false,
          "internalType": "uint256",
          "name": "totalDayFactorAggregate",
          "type": "uint256"
        },
        {
          "indexed": false,
          "internalType": "uint256",
          "name": "totalSeverityFactorAggregate",
          "type": "uint256"
        },
        {
          "indexed": false,
          "internalType": "uint256",
          "name": "day_factor",
          "type": "uint256"
        },
        {
          "indexed": false,
          "internalType": "uint256",
          "name": "severity_factor",
          "type": "uint256"
        },
        {
          "indexed": false,
          "internalType": "uint256",
          "name": "p1",
          "type": "uint256"
        },
        {
          "indexed": false,
          "internalType": "uint256",
          "name": "p2",
          "type": "uint256"
        },
        {
          "indexed": false,
          "internalType": "uint256",
          "name": "numerator",
          "type": "uint256"
        },
        {
          "indexed": false,
          "internalType": "uint256",
          "name": "denominator",
          "type": "uint256"
        }
      ],
      "name": "cnumber",
      "type": "event"
    },
    {
      "inputs": [],
      "name": "c_day",
      "outputs": [
        {
          "internalType": "uint256",
          "name": "",
          "type": "uint256"
        }
      ],
      "stateMutability": "view",
      "type": "function"
    },
    {
      "inputs": [],
      "name": "contractLock",
      "outputs": [
        {
          "internalType": "bool",
          "name": "",
          "type": "bool"
        }
      ],
      "stateMutability": "view",
      "type": "function"
    },
    {
      "inputs": [
        {
          "internalType": "uint256",
          "name": "",
          "type": "uint256"
        }
      ],
      "name": "day_aggregate",
      "outputs": [
        {
          "internalType": "uint256",
          "name": "",
          "type": "uint256"
        }
      ],
      "stateMutability": "view",
      "type": "function"
    },
    {
      "inputs": [],
      "name": "endDay",
      "outputs": [
        {
          "internalType": "uint256",
          "name": "",
          "type": "uint256"
        }
      ],
      "stateMutability": "view",
      "type": "function"
    },
    {
      "inputs": [
        {
          "internalType": "uint256",
          "name": "",
          "type": "uint256"
        }
      ],
      "name": "list_farmer",
      "outputs": [
        {
          "internalType": "address",
          "name": "farmer_address",
          "type": "address"
        },
        {
          "internalType": "string",
          "name": "district",
          "type": "string"
        },
        {
          "internalType": "uint256",
          "name": "total_paid_premium",
          "type": "uint256"
        },
        {
          "internalType": "bool",
          "name": "locked",
          "type": "bool"
        }
      ],
      "stateMutability": "view",
      "type": "function"
    },
    {
      "inputs": [
        {
          "internalType": "address",
          "name": "",
          "type": "address"
        }
      ],
      "name": "list_farmer_index",
      "outputs": [
        {
          "internalType": "uint256",
          "name": "",
          "type": "uint256"
        }
      ],
      "stateMutability": "view",
      "type": "function"
    },
    {
      "inputs": [
        {
          "internalType": "address",
          "name": "",
          "type": "address"
        }
      ],
      "name": "list_farmer_valid",
      "outputs": [
        {
          "internalType": "bool",
          "name": "",
          "type": "bool"
        }
      ],
      "stateMutability": "view",
      "type": "function"
    },
    {
      "inputs": [],
      "name": "startDay",
      "outputs": [
        {
          "internalType": "uint256",
          "name": "",
          "type": "uint256"
        }
      ],
      "stateMutability": "view",
      "type": "function"
    },
    {
      "inputs": [],
      "name": "totalDayFactorAggregate",
      "outputs": [
        {
          "internalType": "uint256",
          "name": "",
          "type": "uint256"
        }
      ],
      "stateMutability": "view",
      "type": "function"
    },
    {
      "inputs": [],
      "name": "totalSeverityFactorAggregate",
      "outputs": [
        {
          "internalType": "uint256",
          "name": "",
          "type": "uint256"
        }
      ],
      "stateMutability": "view",
      "type": "function"
    },
    {
      "inputs": [],
      "name": "getFarmer",
      "outputs": [
        {
          "components": [
            {
              "internalType": "address",
              "name": "farmer_address",
              "type": "address"
            },
            {
              "internalType": "string",
              "name": "district",
              "type": "string"
            },
            {
              "internalType": "uint256",
              "name": "total_paid_premium",
              "type": "uint256"
            },
            {
              "internalType": "uint256[]",
              "name": "paid_premium",
              "type": "uint256[]"
            },
            {
              "internalType": "uint256[]",
              "name": "paid_timestamp",
              "type": "uint256[]"
            },
            {
              "internalType": "bool",
              "name": "locked",
              "type": "bool"
            }
          ],
          "internalType": "struct Insurance.farmer",
          "name": "",
          "type": "tuple"
        }
      ],
      "stateMutability": "view",
      "type": "function"
    },
    {
      "inputs": [
        {
          "internalType": "uint256",
          "name": "day",
          "type": "uint256"
        }
      ],
      "name": "setDay",
      "outputs": [],
      "stateMutability": "nonpayable",
      "type": "function"
    },
    {
      "inputs": [
        {
          "internalType": "string",
          "name": "district_",
          "type": "string"
        }
      ],
      "name": "registerFarmer",
      "outputs": [],
      "stateMutability": "nonpayable",
      "type": "function"
    },
    {
      "inputs": [],
      "name": "payPremium",
      "outputs": [],
      "stateMutability": "payable",
      "type": "function"
    },
    {
      "inputs": [],
      "name": "claimInsurance",
      "outputs": [],
      "stateMutability": "payable",
      "type": "function"
    }
  ],
  "bytecode": "0x60806040526000600a5534801561001557600080fd5b5060008060006101000a81548160ff02191690831515021790555061003e61009e60201b60201c565b600181905550739d7f74d0c41e726ec95884e0e97fa6129e3b5e99600960006101000a81548173ffffffffffffffffffffffffffffffffffffffff021916908373ffffffffffffffffffffffffffffffffffffffff1602179055506100a8565b6000600a54905090565b6120ad806100b76000396000f3fe6080604052600436106100e85760003560e01c806360f9597e1161008a578063867c733d11610059578063867c733d146102ee5780639cb0741b14610319578063a75ac60814610342578063cf837fad1461034c576100e8565b806360f9597e1461021d57806363ec83131461025d57806377f2bf891461029a5780637ba7295e146102c5576100e8565b806329c08ba2116100c657806329c08ba21461016e57806346abfd50146101785780634e0a68d9146101b55780635f92795a146101e0576100e8565b80630539272a146100ed57806315862669146101185780632388ec4c14610143575b600080fd5b3480156100f957600080fd5b50610102610377565b60405161010f9190611376565b60405180910390f35b34801561012457600080fd5b5061012d61037d565b60405161013a9190611376565b60405180910390f35b34801561014f57600080fd5b50610158610383565b60405161016591906115d2565b60405180910390f35b6101766105bf565b005b34801561018457600080fd5b5061019f600480360381019061019a9190611634565b61080f565b6040516101ac9190611376565b60405180910390f35b3480156101c157600080fd5b506101ca610827565b6040516101d79190611376565b60405180910390f35b3480156101ec57600080fd5b506102076004803603810190610202919061168d565b61082d565b6040516102149190611376565b60405180910390f35b34801561022957600080fd5b50610244600480360381019061023f919061168d565b610845565b6040516102549493929190611722565b60405180910390f35b34801561026957600080fd5b50610284600480360381019061027f9190611634565b61093a565b604051610291919061176e565b60405180910390f35b3480156102a657600080fd5b506102af61095a565b6040516102bc9190611376565b60405180910390f35b3480156102d157600080fd5b506102ec60048036038101906102e791906118be565b610960565b005b3480156102fa57600080fd5b50610303610c41565b6040516103109190611376565b60405180910390f35b34801561032557600080fd5b50610340600480360381019061033b919061168d565b610c47565b005b61034a610c51565b005b34801561035857600080fd5b50610361611131565b60405161036e919061176e565b60405180910390f35b60015481565b60025481565b61038b6112a5565b6000600460003373ffffffffffffffffffffffffffffffffffffffff1673ffffffffffffffffffffffffffffffffffffffff168152602001908152602001600020549050600381815481106103e3576103e2611907565b5b90600052602060002090600602016040518060c00160405290816000820160009054906101000a900473ffffffffffffffffffffffffffffffffffffffff1673ffffffffffffffffffffffffffffffffffffffff1673ffffffffffffffffffffffffffffffffffffffff16815260200160018201805461046290611965565b80601f016020809104026020016040519081016040528092919081815260200182805461048e90611965565b80156104db5780601f106104b0576101008083540402835291602001916104db565b820191906000526020600020905b8154815290600101906020018083116104be57829003601f168201915b50505050508152602001600282015481526020016003820180548060200260200160405190810160405280929190818152602001828054801561053d57602002820191906000526020600020905b815481526020019060010190808311610529575b505050505081526020016004820180548060200260200160405190810160405280929190818152602001828054801561059557602002820191906000526020600020905b815481526020019060010190808311610581575b505050505081526020016005820160009054906101000a900460ff16151515158152505091505090565b6000151560008054906101000a900460ff16151514610613576040517f08c379a000000000000000000000000000000000000000000000000000000000815260040161060a906119e2565b60405180910390fd5b60003403610656576040517f08c379a000000000000000000000000000000000000000000000000000000000815260040161064d90611a4e565b60405180910390fd5b60011515600560003373ffffffffffffffffffffffffffffffffffffffff1673ffffffffffffffffffffffffffffffffffffffff16815260200190815260200160002060009054906101000a900460ff161515146106e9576040517f08c379a00000000000000000000000000000000000000000000000000000000081526004016106e090611aba565b60405180910390fd5b60006106f3611142565b90506000600460003373ffffffffffffffffffffffffffffffffffffffff1673ffffffffffffffffffffffffffffffffffffffff16815260200190815260200160002054905060006003828154811061074f5761074e611907565b5b906000526020600020906006020190506001548361076d9190611b09565b92508060030134908060018154018082558091505060019003906000526020600020016000909190919091505580600401839080600181540180825580915050600190039060005260206000200160009091909190915055348160020160008282546107d99190611b3d565b92505081905550346006600085815260200190815260200160002060008282546108039190611b3d565b92505081905550505050565b60046020528060005260406000206000915090505481565b60075481565b60066020528060005260406000206000915090505481565b6003818154811061085557600080fd5b90600052602060002090600602016000915090508060000160009054906101000a900473ffffffffffffffffffffffffffffffffffffffff169080600101805461089e90611965565b80601f01602080910402602001604051908101604052809291908181526020018280546108ca90611965565b80156109175780601f106108ec57610100808354040283529160200191610917565b820191906000526020600020905b8154815290600101906020018083116108fa57829003601f168201915b5050505050908060020154908060050160009054906101000a900460ff16905084565b60056020528060005260406000206000915054906101000a900460ff1681565b60085481565b6000151560008054906101000a900460ff161515146109b4576040517f08c379a00000000000000000000000000000000000000000000000000000000081526004016109ab906119e2565b60405180910390fd5b60001515600560003373ffffffffffffffffffffffffffffffffffffffff1673ffffffffffffffffffffffffffffffffffffffff16815260200190815260200160002060009054906101000a900460ff16151514610a47576040517f08c379a0000000000000000000000000000000000000000000000000000000008152600401610a3e90611bbd565b60405180910390fd5b610a4f6112a5565b33816000019073ffffffffffffffffffffffffffffffffffffffff16908173ffffffffffffffffffffffffffffffffffffffff168152505081816020018190525060008160a0019015159081151581525050600381908060018154018082558091505060019003906000526020600020906006020160009091909190915060008201518160000160006101000a81548173ffffffffffffffffffffffffffffffffffffffff021916908373ffffffffffffffffffffffffffffffffffffffff1602179055506020820151816001019081610b299190611d89565b50604082015181600201556060820151816003019080519060200190610b509291906112f3565b506080820151816004019080519060200190610b6d9291906112f3565b5060a08201518160050160006101000a81548160ff02191690831515021790555050506001600380549050610ba29190611b09565b600460003373ffffffffffffffffffffffffffffffffffffffff1673ffffffffffffffffffffffffffffffffffffffff168152602001908152602001600020819055506001600560003373ffffffffffffffffffffffffffffffffffffffff1673ffffffffffffffffffffffffffffffffffffffff16815260200190815260200160002060006101000a81548160ff0219169083151502179055505050565b600a5481565b80600a8190555050565b6000610c5b611142565b905060006003600460003373ffffffffffffffffffffffffffffffffffffffff1673ffffffffffffffffffffffffffffffffffffffff1681526020019081526020016000205481548110610cb257610cb1611907565b5b90600052602060002090600602016040518060c00160405290816000820160009054906101000a900473ffffffffffffffffffffffffffffffffffffffff1673ffffffffffffffffffffffffffffffffffffffff1673ffffffffffffffffffffffffffffffffffffffff168152602001600182018054610d3190611965565b80601f0160208091040260200160405190810160405280929190818152602001828054610d5d90611965565b8015610daa5780601f10610d7f57610100808354040283529160200191610daa565b820191906000526020600020905b815481529060010190602001808311610d8d57829003601f168201915b505050505081526020016002820154815260200160038201805480602002602001604051908101604052809291908181526020018280548015610e0c57602002820191906000526020600020905b815481526020019060010190808311610df8575b5050505050815260200160048201805480602002602001604051908101604052809291908181526020018280548015610e6457602002820191906000526020600020905b815481526020019060010190808311610e50575b505050505081526020016005820160009054906101000a900460ff16151515158152505090506001151560008054906101000a900460ff16151514610f6a5760016000806101000a81548160ff02191690831515021790555081600281905550610ecc61114c565b600781905550600960009054906101000a900473ffffffffffffffffffffffffffffffffffffffff1673ffffffffffffffffffffffffffffffffffffffff1663a46be3aa6040518163ffffffff1660e01b8152600401602060405180830381865afa158015610f3f573d6000803e3d6000fd5b505050506040513d601f19601f82011682018060405250810190610f639190611e70565b6008819055505b6000610f75826111d6565b90506000600960009054906101000a900473ffffffffffffffffffffffffffffffffffffffff1673ffffffffffffffffffffffffffffffffffffffff1663ad6781d484602001516040518263ffffffff1660e01b8152600401610fd89190611e9d565b602060405180830381865afa158015610ff5573d6000803e3d6000fd5b505050506040513d601f19601f820116820180604052508101906110199190611e70565b905060008260085461102b9190611ebf565b905060008260075461103d9190611ebf565b90506000856040015182846110529190611b3d565b61105c9190611ebf565b9050600060085460075460026110729190611ebf565b61107c9190611ebf565b90507fce71da1e68bb5b6b4e5b13181a3a9754c25ce6f979d205cd21a87067c6f9bb506002546007546008548989898989896040516110c399989796959493929190611f19565b60405180910390a1600081836110d99190611fd5565b9050876000015173ffffffffffffffffffffffffffffffffffffffff166108fc829081150290604051600060405180830381858888f19350505050158015611125573d6000803e3d6000fd5b50505050505050505050565b60008054906101000a900460ff1681565b6000600a54905090565b60008060015460025461115f9190611b09565b90506000806001905060008390505b600081106111cc578160066000838152602001908152602001600020546111959190611ebf565b836111a09190611b3d565b925081806111ad90612006565b92505060008103156111cc5780806111c49061204e565b91505061116e565b5081935050505090565b60008060009050600060019050600060018560600151516111f79190611b09565b90505b6000811061129a5760018560800151828151811061121b5761121a611907565b5b60200260200101516002546112309190611b09565b61123a9190611b3d565b8560600151828151811061125157611250611907565b5b60200260200101516112639190611ebf565b8361126e9190611b3d565b9250818061127b90612006565b925050600081031561129a5780806112929061204e565b9150506111fa565b508192505050919050565b6040518060c00160405280600073ffffffffffffffffffffffffffffffffffffffff168152602001606081526020016000815260200160608152602001606081526020016000151581525090565b82805482825590600052602060002090810192821561132f579160200282015b8281111561132e578251825591602001919060010190611313565b5b50905061133c9190611340565b5090565b5b80821115611359576000816000905550600101611341565b5090565b6000819050919050565b6113708161135d565b82525050565b600060208201905061138b6000830184611367565b92915050565b600073ffffffffffffffffffffffffffffffffffffffff82169050919050565b60006113bc82611391565b9050919050565b6113cc816113b1565b82525050565b600081519050919050565b600082825260208201905092915050565b60005b8381101561140c5780820151818401526020810190506113f1565b60008484015250505050565b6000601f19601f8301169050919050565b6000611434826113d2565b61143e81856113dd565b935061144e8185602086016113ee565b61145781611418565b840191505092915050565b61146b8161135d565b82525050565b600081519050919050565b600082825260208201905092915050565b6000819050602082019050919050565b60006114a98383611462565b60208301905092915050565b6000602082019050919050565b60006114cd82611471565b6114d7818561147c565b93506114e28361148d565b8060005b838110156115135781516114fa888261149d565b9750611505836114b5565b9250506001810190506114e6565b5085935050505092915050565b60008115159050919050565b61153581611520565b82525050565b600060c08301600083015161155360008601826113c3565b506020830151848203602086015261156b8282611429565b91505060408301516115806040860182611462565b506060830151848203606086015261159882826114c2565b915050608083015184820360808601526115b282826114c2565b91505060a08301516115c760a086018261152c565b508091505092915050565b600060208201905081810360008301526115ec818461153b565b905092915050565b6000604051905090565b600080fd5b600080fd5b611611816113b1565b811461161c57600080fd5b50565b60008135905061162e81611608565b92915050565b60006020828403121561164a576116496115fe565b5b60006116588482850161161f565b91505092915050565b61166a8161135d565b811461167557600080fd5b50565b60008135905061168781611661565b92915050565b6000602082840312156116a3576116a26115fe565b5b60006116b184828501611678565b91505092915050565b6116c3816113b1565b82525050565b600082825260208201905092915050565b60006116e5826113d2565b6116ef81856116c9565b93506116ff8185602086016113ee565b61170881611418565b840191505092915050565b61171c81611520565b82525050565b600060808201905061173760008301876116ba565b818103602083015261174981866116da565b90506117586040830185611367565b6117656060830184611713565b95945050505050565b60006020820190506117836000830184611713565b92915050565b600080fd5b600080fd5b7f4e487b7100000000000000000000000000000000000000000000000000000000600052604160045260246000fd5b6117cb82611418565b810181811067ffffffffffffffff821117156117ea576117e9611793565b5b80604052505050565b60006117fd6115f4565b905061180982826117c2565b919050565b600067ffffffffffffffff82111561182957611828611793565b5b61183282611418565b9050602081019050919050565b82818337600083830152505050565b600061186161185c8461180e565b6117f3565b90508281526020810184848401111561187d5761187c61178e565b5b61188884828561183f565b509392505050565b600082601f8301126118a5576118a4611789565b5b81356118b584826020860161184e565b91505092915050565b6000602082840312156118d4576118d36115fe565b5b600082013567ffffffffffffffff8111156118f2576118f1611603565b5b6118fe84828501611890565b91505092915050565b7f4e487b7100000000000000000000000000000000000000000000000000000000600052603260045260246000fd5b7f4e487b7100000000000000000000000000000000000000000000000000000000600052602260045260246000fd5b6000600282049050600182168061197d57607f821691505b6020821081036119905761198f611936565b5b50919050565b7f436f6e747261637420686173206265656e206c6f636b65640000000000000000600082015250565b60006119cc6018836116c9565b91506119d782611996565b602082019050919050565b600060208201905081810360008301526119fb816119bf565b9050919050565b7f5072656d69756d2063616e6e6f74206265207a65726f00000000000000000000600082015250565b6000611a386016836116c9565b9150611a4382611a02565b602082019050919050565b60006020820190508181036000830152611a6781611a2b565b9050919050565b7f596f7520617265206e6f74207265676973746572656400000000000000000000600082015250565b6000611aa46016836116c9565b9150611aaf82611a6e565b602082019050919050565b60006020820190508181036000830152611ad381611a97565b9050919050565b7f4e487b7100000000000000000000000000000000000000000000000000000000600052601160045260246000fd5b6000611b148261135d565b9150611b1f8361135d565b9250828203905081811115611b3757611b36611ada565b5b92915050565b6000611b488261135d565b9150611b538361135d565b9250828201905080821115611b6b57611b6a611ada565b5b92915050565b7f596f752061726520616c72656164792072656769737465726564000000000000600082015250565b6000611ba7601a836116c9565b9150611bb282611b71565b602082019050919050565b60006020820190508181036000830152611bd681611b9a565b9050919050565b60008190508160005260206000209050919050565b60006020601f8301049050919050565b600082821b905092915050565b600060088302611c3f7fffffffffffffffffffffffffffffffffffffffffffffffffffffffffffffffff82611c02565b611c498683611c02565b95508019841693508086168417925050509392505050565b6000819050919050565b6000611c86611c81611c7c8461135d565b611c61565b61135d565b9050919050565b6000819050919050565b611ca083611c6b565b611cb4611cac82611c8d565b848454611c0f565b825550505050565b600090565b611cc9611cbc565b611cd4818484611c97565b505050565b5b81811015611cf857611ced600082611cc1565b600181019050611cda565b5050565b601f821115611d3d57611d0e81611bdd565b611d1784611bf2565b81016020851015611d26578190505b611d3a611d3285611bf2565b830182611cd9565b50505b505050565b600082821c905092915050565b6000611d6060001984600802611d42565b1980831691505092915050565b6000611d798383611d4f565b9150826002028217905092915050565b611d92826113d2565b67ffffffffffffffff811115611dab57611daa611793565b5b611db58254611965565b611dc0828285611cfc565b600060209050601f831160018114611df35760008415611de1578287015190505b611deb8582611d6d565b865550611e53565b601f198416611e0186611bdd565b60005b82811015611e2957848901518255600182019150602085019450602081019050611e04565b86831015611e465784890151611e42601f891682611d4f565b8355505b6001600288020188555050505b505050505050565b600081519050611e6a81611661565b92915050565b600060208284031215611e8657611e856115fe565b5b6000611e9484828501611e5b565b91505092915050565b60006020820190508181036000830152611eb781846116da565b905092915050565b6000611eca8261135d565b9150611ed58361135d565b9250817fffffffffffffffffffffffffffffffffffffffffffffffffffffffffffffffff0483118215151615611f0e57611f0d611ada565b5b828202905092915050565b600061012082019050611f2f600083018c611367565b611f3c602083018b611367565b611f49604083018a611367565b611f566060830189611367565b611f636080830188611367565b611f7060a0830187611367565b611f7d60c0830186611367565b611f8a60e0830185611367565b611f98610100830184611367565b9a9950505050505050505050565b7f4e487b7100000000000000000000000000000000000000000000000000000000600052601260045260246000fd5b6000611fe08261135d565b9150611feb8361135d565b925082611ffb57611ffa611fa6565b5b828204905092915050565b60006120118261135d565b91507fffffffffffffffffffffffffffffffffffffffffffffffffffffffffffffffff820361204357612042611ada565b5b600182019050919050565b60006120598261135d565b91506000820361206c5761206b611ada565b5b60018203905091905056fea264697066735822122021b4db4ab6b5749e29c0eca30eb9559df3f661dbc9da36eea0d3ed92f69d041e64736f6c63430008100033",
  "immutableReferences": {},
  "source": "// SPDX-License-Identifier: MIT\r\npragma solidity ^0.8.7;\r\n\r\ninterface DisasterInterface  {\r\n    function setSeverity(string memory district, uint newSeverity) external;\r\n    function getSeverityData(string memory district, uint day) external view returns (uint);\r\n    function getDistricts() external pure returns (string memory);\r\n    function getAccumulatedSeverity(string memory district) external view returns (uint);\r\n    function getTotalAccumulatedSeverity() external view returns (uint256);\r\n}\r\n\r\ncontract Insurance\r\n{\r\n    struct farmer\r\n    {\r\n        address farmer_address;\r\n        string district;\r\n\r\n        uint256 total_paid_premium;\r\n        uint256[] paid_premium;\r\n        uint256[] paid_timestamp;\r\n\r\n        bool locked;\r\n    }\r\n    \r\n    bool public contractLock;\r\n    uint256 public startDay;\r\n    uint256 public endDay;\r\n\r\n    farmer[] public list_farmer;\r\n    mapping(address => uint256) public list_farmer_index;\r\n    mapping(address => bool) public list_farmer_valid;\r\n\r\n    mapping(uint256 => uint256) public day_aggregate;\r\n\r\n    // Calculating sum( x(i) * y(i) ),\r\n    // tried to reduce time complexity form O(n * m) to O(n),\r\n    // where n => number of days from start to end & m => numbers of farmers.\r\n    uint256 public totalDayFactorAggregate;\r\n\r\n    uint256 public totalSeverityFactorAggregate;\r\n\r\n    DisasterInterface DisasterInterfaceObject;\r\n    modifier unlocked\r\n    {\r\n        require(contractLock == false, \"Contract has been locked\");\r\n        _;\r\n    }\r\n\r\n    modifier onlyFarmer\r\n    {\r\n        require(list_farmer_valid[msg.sender] == true, \"You are not registered\");\r\n        _;\r\n    }\r\n\r\n    constructor()\r\n    {\r\n        contractLock = false;\r\n        startDay = getDay();\r\n        DisasterInterfaceObject = DisasterInterface(0x9D7f74d0C41E726EC95884E0e97Fa6129e3b5E99);\r\n    }\r\n\r\n    function getFarmer() public view returns(farmer memory)\r\n    {\r\n        uint256 farmer_index = list_farmer_index[msg.sender];\r\n\r\n        return list_farmer[farmer_index];\r\n    }\r\n\r\n\r\n    // !!! remove this before submission\r\n    uint256 public c_day = 0;\r\n    function setDay(uint256 day) public\r\n    {\r\n        c_day = day;\r\n    }\r\n    function getDay() private view returns(uint256)\r\n    {\r\n        return c_day;\r\n    } \r\n\r\n/* \r\n    function getDay() private view returns(uint256)\r\n    {\r\n        return (block.timestamp) / 5 minutes;\r\n    } */\r\n\r\n    function registerFarmer(string memory district_) public unlocked\r\n    {\r\n        require(list_farmer_valid[msg.sender] == false, \"You are already registered\");\r\n\r\n        farmer memory tmp;\r\n        tmp.farmer_address = msg.sender;\r\n        tmp.district = district_;\r\n        tmp.locked = false;\r\n        list_farmer.push(tmp);\r\n        \r\n        list_farmer_index[msg.sender] = list_farmer.length -1;\r\n        list_farmer_valid[msg.sender] = true;\r\n    }\r\n\r\n    function payPremium() public payable unlocked\r\n    {\r\n        require(msg.value != 0, \"Premium cannot be zero\");\r\n        require(list_farmer_valid[msg.sender] == true, \"You are not registered\");\r\n\r\n        uint current_day = getDay();\r\n        uint256 farmer_index = list_farmer_index[msg.sender];\r\n\r\n        farmer storage t_farmer = list_farmer[farmer_index];\r\n        current_day = current_day - startDay;\r\n        t_farmer.paid_premium.push(msg.value);\r\n        t_farmer.paid_timestamp.push(current_day);\r\n        t_farmer.total_paid_premium += msg.value;\r\n\r\n        day_aggregate[current_day] += msg.value;\r\n    }\r\n    \r\n    function calculateAggregateDayFactor() private view returns (uint256)\r\n    {\r\n        uint256 day_aggregator_length = endDay - startDay;\r\n        uint256 aggregate_day_factor = 0;\r\n        uint256 j = 1;\r\n        for(uint256 i = day_aggregator_length; i>= 0 ;i--)\r\n        {\r\n            aggregate_day_factor += day_aggregate[i] * j;\r\n            j++;\r\n\r\n            if(i == 0)\r\n                break;\r\n        }\r\n        return aggregate_day_factor;\r\n    }\r\n\r\n    //flawed => 10 0 50 0 0 will be calculated as 10 50\r\n    function calculateDayFactor(farmer memory t_farmer) private view returns (uint256)\r\n    {\r\n        uint256 t_day_factor = 0;\r\n        uint256 j = 1;\r\n        for(uint256 i = t_farmer.paid_premium.length -1; i >= 0; i--)\r\n        {\r\n            t_day_factor += t_farmer.paid_premium[i] * (endDay - t_farmer.paid_timestamp[i] +1);\r\n            j++;\r\n            \r\n            if(i == 0)\r\n                break;\r\n        }\r\n\r\n        return t_day_factor;\r\n    }\r\n\r\n    event cnumber\r\n    (\r\n        uint endDay,\r\n        uint totalDayFactorAggregate,\r\n        uint totalSeverityFactorAggregate,\r\n        uint day_factor,\r\n        uint severity_factor,\r\n        uint p1,\r\n        uint p2,\r\n        uint numerator,\r\n        uint denominator\r\n    );\r\n\r\n    function claimInsurance() public payable\r\n    {\r\n        uint256 today = getDay();\r\n        farmer memory t_farmer = list_farmer[list_farmer_index[msg.sender]];\r\n\r\n        if(contractLock != true)\r\n        {\r\n            contractLock = true;\r\n            endDay = today;\r\n            \r\n            totalDayFactorAggregate = calculateAggregateDayFactor();\r\n            totalSeverityFactorAggregate = DisasterInterfaceObject.getTotalAccumulatedSeverity();\r\n        }\r\n\r\n        uint256 day_factor = calculateDayFactor(t_farmer);\r\n        uint256 severity_factor = DisasterInterfaceObject.getAccumulatedSeverity(t_farmer.district);\r\n\r\n        uint256 p1 = totalSeverityFactorAggregate * day_factor;\r\n        uint256 p2 = totalDayFactorAggregate * severity_factor;\r\n        uint256 numerator = (p1 + p2) * t_farmer.total_paid_premium;\r\n        uint256 denominator = (2 * totalDayFactorAggregate * totalSeverityFactorAggregate);\r\n\r\n        emit cnumber(endDay, totalDayFactorAggregate, totalSeverityFactorAggregate, day_factor, severity_factor, p1, p2, numerator, denominator);\r\n\r\n        uint256 total_insurance_amount = numerator / denominator;\r\n\r\n        payable(t_farmer.farmer_address).transfer(total_insurance_amount);\r\n    }\r\n}",
  "sourcePath": "C:\\programs\\TE\\hacker-house-blockchain\\contracts\\Insurance.sol",
  "compiler": {
    "name": "solc",
    "version": "0.8.16+commit.07a7930e.Emscripten.clang"
  },
  "schemaVersion": "3.4.7",
  "updatedAt": "2022-08-27T08:57:48.116Z",
  "devdoc": {
    "kind": "dev",
    "methods": {},
    "version": 1
  },
  "userdoc": {
    "kind": "user",
    "methods": {},
    "version": 1
  }
}